{
  "transactions": [
    {
      "hash": "0x870e7b9bfb5895619f90cfbafffb09736833ff39cef34a46cf18da4de0426983",
      "transactionType": "CALL",
      "contractName": null,
      "contractAddress": "0x89B5c9cf2DfB1e84A0FF0B8Ca75Ae76F19825A2F",
      "function": "safeMint(uint8)",
      "arguments": [
        "5"
      ],
      "transaction": {
        "type": "0x02",
        "from": "0xd622804abc76b6b35a7d0382eee173903c127e2c",
        "to": "0x89b5c9cf2dfb1e84a0ff0b8ca75ae76f19825a2f",
        "gas": "0x15883",
        "value": "0x0",
        "data": "0xda863ed60000000000000000000000000000000000000000000000000000000000000005",
        "nonce": "0x124",
        "accessList": []
      },
      "additionalContracts": [],
      "isFixedGasLimit": false
    }
  ],
  "receipts": [
    {
      "transactionHash": "0x870e7b9bfb5895619f90cfbafffb09736833ff39cef34a46cf18da4de0426983",
      "transactionIndex": "0xb",
      "blockHash": "0x88b85325fd4a691be317d71d0e5fdadaf9ab1b55096c7ed3fe2a385f02186759",
      "blockNumber": "0x562952",
      "from": "0xD622804Abc76b6b35A7d0382Eee173903c127E2c",
      "to": "0x89B5c9cf2DfB1e84A0FF0B8Ca75Ae76F19825A2F",
      "cumulativeGasUsed": "0xc1702",
      "gasUsed": "0xf96d",
      "contractAddress": null,
      "logs": [
        {
          "address": "0x89B5c9cf2DfB1e84A0FF0B8Ca75Ae76F19825A2F",
          "topics": [
            "0xddf252ad1be2c89b69c2b068fc378daa952ba7f163c4a11628f55a4df523b3ef",
            "0x0000000000000000000000000000000000000000000000000000000000000000",
            "0x000000000000000000000000d622804abc76b6b35a7d0382eee173903c127e2c",
            "0x0000000000000000000000000000000000000000000000000000000000000005"
          ],
          "data": "0x",
          "blockHash": "0x88b85325fd4a691be317d71d0e5fdadaf9ab1b55096c7ed3fe2a385f02186759",
          "blockNumber": "0x562952",
          "transactionHash": "0x870e7b9bfb5895619f90cfbafffb09736833ff39cef34a46cf18da4de0426983",
          "transactionIndex": "0xb",
          "logIndex": "0x6",
          "removed": false
        },
        {
          "address": "0x89B5c9cf2DfB1e84A0FF0B8Ca75Ae76F19825A2F",
          "topics": [
            "0xddf252ad1be2c89b69c2b068fc378daa952ba7f163c4a11628f55a4df523b3ef",
            "0x0000000000000000000000000000000000000000000000000000000000000000",
            "0x000000000000000000000000d622804abc76b6b35a7d0382eee173903c127e2c",
            "0x0000000000000000000000000000000000000000000000000000000000000006"
          ],
          "data": "0x",
          "blockHash": "0x88b85325fd4a691be317d71d0e5fdadaf9ab1b55096c7ed3fe2a385f02186759",
          "blockNumber": "0x562952",
          "transactionHash": "0x870e7b9bfb5895619f90cfbafffb09736833ff39cef34a46cf18da4de0426983",
          "transactionIndex": "0xb",
          "logIndex": "0x7",
          "removed": false
        },
        {
          "address": "0x89B5c9cf2DfB1e84A0FF0B8Ca75Ae76F19825A2F",
          "topics": [
            "0xddf252ad1be2c89b69c2b068fc378daa952ba7f163c4a11628f55a4df523b3ef",
            "0x0000000000000000000000000000000000000000000000000000000000000000",
            "0x000000000000000000000000d622804abc76b6b35a7d0382eee173903c127e2c",
            "0x0000000000000000000000000000000000000000000000000000000000000007"
          ],
          "data": "0x",
          "blockHash": "0x88b85325fd4a691be317d71d0e5fdadaf9ab1b55096c7ed3fe2a385f02186759",
          "blockNumber": "0x562952",
          "transactionHash": "0x870e7b9bfb5895619f90cfbafffb09736833ff39cef34a46cf18da4de0426983",
          "transactionIndex": "0xb",
          "logIndex": "0x8",
          "removed": false
        },
        {
          "address": "0x89B5c9cf2DfB1e84A0FF0B8Ca75Ae76F19825A2F",
          "topics": [
            "0xddf252ad1be2c89b69c2b068fc378daa952ba7f163c4a11628f55a4df523b3ef",
            "0x0000000000000000000000000000000000000000000000000000000000000000",
            "0x000000000000000000000000d622804abc76b6b35a7d0382eee173903c127e2c",
            "0x0000000000000000000000000000000000000000000000000000000000000008"
          ],
          "data": "0x",
          "blockHash": "0x88b85325fd4a691be317d71d0e5fdadaf9ab1b55096c7ed3fe2a385f02186759",
          "blockNumber": "0x562952",
          "transactionHash": "0x870e7b9bfb5895619f90cfbafffb09736833ff39cef34a46cf18da4de0426983",
          "transactionIndex": "0xb",
          "logIndex": "0x9",
          "removed": false
        },
        {
          "address": "0x89B5c9cf2DfB1e84A0FF0B8Ca75Ae76F19825A2F",
          "topics": [
            "0xddf252ad1be2c89b69c2b068fc378daa952ba7f163c4a11628f55a4df523b3ef",
            "0x0000000000000000000000000000000000000000000000000000000000000000",
            "0x000000000000000000000000d622804abc76b6b35a7d0382eee173903c127e2c",
            "0x0000000000000000000000000000000000000000000000000000000000000009"
          ],
          "data": "0x",
          "blockHash": "0x88b85325fd4a691be317d71d0e5fdadaf9ab1b55096c7ed3fe2a385f02186759",
          "blockNumber": "0x562952",
          "transactionHash": "0x870e7b9bfb5895619f90cfbafffb09736833ff39cef34a46cf18da4de0426983",
          "transactionIndex": "0xb",
          "logIndex": "0xa",
          "removed": false
        }
      ],
      "status": "0x1",
      "logsBloom": "0x00000000000000000000000000000000000000000000000000000000000000000000000000040000000000000000000000001000000480000000000000200000000030000000000000000008000000000000000000000000000000000040000000000000020000000000000100000800000000000000000000000010000000000080000400000000000000000000001000001800000000000000000010000000000000000000000000000000000000000000000000000000000000080000000040000002000000000000000000100000000000000000000000001100000020000000000000000000000000000000000000000000000000000000000000800000",
      "type": "0x2",
      "effectiveGasPrice": "0xb2da04b4"
    }
  ],
  "libraries": [],
  "pending": [],
  "returns": {},
  "timestamp": 1712480080,
  "chain": 11155111,
  "multi": false,
  "commit": "d5922e3"
}